{
  "contractName": "Certify",
  "abi": [
    {
      "anonymous": false,
      "inputs": [
        {
          "indexed": true,
          "internalType": "address",
          "name": "owner",
          "type": "address"
        },
        {
          "indexed": true,
          "internalType": "bytes32",
          "name": "hash",
          "type": "bytes32"
        }
      ],
      "name": "DocumentAdded",
      "type": "event"
    },
    {
      "inputs": [],
      "name": "documentCount",
      "outputs": [
        {
          "internalType": "uint256",
          "name": "",
          "type": "uint256"
        }
      ],
      "stateMutability": "view",
      "type": "function",
      "constant": true
    },
    {
      "inputs": [
        {
          "internalType": "bytes32",
          "name": "",
          "type": "bytes32"
        }
      ],
      "name": "documents",
      "outputs": [
        {
          "internalType": "address",
          "name": "owner",
          "type": "address"
        },
        {
          "internalType": "bytes",
          "name": "signature",
          "type": "bytes"
        },
        {
          "internalType": "bytes",
          "name": "publicKey",
          "type": "bytes"
        },
        {
          "internalType": "bytes32",
          "name": "hash",
          "type": "bytes32"
        }
      ],
      "stateMutability": "view",
      "type": "function",
      "constant": true
    },
    {
      "inputs": [
        {
          "internalType": "bytes",
          "name": "_signature",
          "type": "bytes"
        },
        {
          "internalType": "bytes",
          "name": "_publicKey",
          "type": "bytes"
        },
        {
          "internalType": "bytes32",
          "name": "_hash",
          "type": "bytes32"
        }
      ],
      "name": "addDocument",
      "outputs": [],
      "stateMutability": "nonpayable",
      "type": "function"
    }
  ],
  "bytecode": "0x608060405234801561001057600080fd5b50610993806100206000396000f3fe608060405234801561001057600080fd5b50600436106100415760003560e01c80632b2805db14610046578063a5b16b2e14610079578063c194ce0414610097575b600080fd5b610060600480360381019061005b9190610515565b6100b3565b6040516100709493929190610689565b60405180910390f35b610081610213565b60405161008e91906106fc565b60405180910390f35b6100b160048036038101906100ac919061053e565b610219565b005b60006020528060005260406000206000915090508060000160009054906101000a900473ffffffffffffffffffffffffffffffffffffffff16908060010180546100fc9061082d565b80601f01602080910402602001604051908101604052809291908181526020018280546101289061082d565b80156101755780601f1061014a57610100808354040283529160200191610175565b820191906000526020600020905b81548152906001019060200180831161015857829003601f168201915b50505050509080600201805461018a9061082d565b80601f01602080910402602001604051908101604052809291908181526020018280546101b69061082d565b80156102035780601f106101d857610100808354040283529160200191610203565b820191906000526020600020905b8154815290600101906020018083116101e657829003601f168201915b5050505050908060030154905084565b60015481565b600073ffffffffffffffffffffffffffffffffffffffff1660008083815260200190815260200160002060000160009054906101000a900473ffffffffffffffffffffffffffffffffffffffff1673ffffffffffffffffffffffffffffffffffffffff16146102bd576040517f08c379a00000000000000000000000000000000000000000000000000000000081526004016102b4906106dc565b60405180910390fd5b60405180608001604052803373ffffffffffffffffffffffffffffffffffffffff1681526020018481526020018381526020018281525060008083815260200190815260200160002060008201518160000160006101000a81548173ffffffffffffffffffffffffffffffffffffffff021916908373ffffffffffffffffffffffffffffffffffffffff16021790555060208201518160010190805190602001906103699291906103f5565b5060408201518160020190805190602001906103869291906103f5565b5060608201518160030155905050803373ffffffffffffffffffffffffffffffffffffffff167fe68825b3468903e0d27d1e297b54d8679bde1a87d4aa7f008eb06bff2a52155860405160405180910390a3600160008154809291906103eb9061085f565b9190505550505050565b8280546104019061082d565b90600052602060002090601f016020900481019282610423576000855561046a565b82601f1061043c57805160ff191683800117855561046a565b8280016001018555821561046a579182015b8281111561046957825182559160200191906001019061044e565b5b509050610477919061047b565b5090565b5b8082111561049457600081600090555060010161047c565b5090565b60006104ab6104a684610748565b610717565b9050828152602081018484840111156104c357600080fd5b6104ce8482856107eb565b509392505050565b6000813590506104e581610946565b92915050565b600082601f8301126104fc57600080fd5b813561050c848260208601610498565b91505092915050565b60006020828403121561052757600080fd5b6000610535848285016104d6565b91505092915050565b60008060006060848603121561055357600080fd5b600084013567ffffffffffffffff81111561056d57600080fd5b610579868287016104eb565b935050602084013567ffffffffffffffff81111561059657600080fd5b6105a2868287016104eb565b92505060406105b3868287016104d6565b9150509250925092565b6105c6816107a5565b82525050565b6105d5816107b7565b82525050565b60006105e682610778565b6105f08185610783565b93506106008185602086016107fa565b61060981610935565b840191505092915050565b6000610621602683610794565b91507f446f63756d656e7420776974682074686973206861736820616c72656164792060008301527f65786973747300000000000000000000000000000000000000000000000000006020830152604082019050919050565b610683816107e1565b82525050565b600060808201905061069e60008301876105bd565b81810360208301526106b081866105db565b905081810360408301526106c481856105db565b90506106d360608301846105cc565b95945050505050565b600060208201905081810360008301526106f581610614565b9050919050565b6000602082019050610711600083018461067a565b92915050565b6000604051905081810181811067ffffffffffffffff8211171561073e5761073d610906565b5b8060405250919050565b600067ffffffffffffffff82111561076357610762610906565b5b601f19601f8301169050602081019050919050565b600081519050919050565b600082825260208201905092915050565b600082825260208201905092915050565b60006107b0826107c1565b9050919050565b6000819050919050565b600073ffffffffffffffffffffffffffffffffffffffff82169050919050565b6000819050919050565b82818337600083830152505050565b60005b838110156108185780820151818401526020810190506107fd565b83811115610827576000848401525b50505050565b6000600282049050600182168061084557607f821691505b60208210811415610859576108586108d7565b5b50919050565b600061086a826107e1565b91507fffffffffffffffffffffffffffffffffffffffffffffffffffffffffffffffff82141561089d5761089c6108a8565b5b600182019050919050565b7f4e487b7100000000000000000000000000000000000000000000000000000000600052601160045260246000fd5b7f4e487b7100000000000000000000000000000000000000000000000000000000600052602260045260246000fd5b7f4e487b7100000000000000000000000000000000000000000000000000000000600052604160045260246000fd5b6000601f19601f8301169050919050565b61094f816107b7565b811461095a57600080fd5b5056fea26469706673582212205b0b973f30d2fcc66baaf5e0f9a1526f6f156fab6cd0efd7df7b82b8e75ce16e64736f6c63430008000033",
  "immutableReferences": {},
  "source": "pragma solidity 0.8.0;\r\n\r\ncontract Certify {\r\n    struct Document {\r\n        address owner;       // Address of the document owner\r\n        bytes signature;     // EdDSA signature of the document\r\n        bytes publicKey;     // Public key of the document\r\n        bytes32 hash;        // Hash of the document data\r\n    }\r\n\r\n    mapping(bytes32 => Document) public documents;\r\n    uint256 public documentCount;\r\n\r\n    // Event to log when a new document is added\r\n    event DocumentAdded(address indexed owner, bytes32 indexed hash);\r\n\r\n    // Function to add a new document\r\n    function addDocument(bytes memory _signature, bytes memory _publicKey, bytes32 _hash) public {\r\n        require(documents[_hash].owner == address(0), \"Document with this hash already exists\");\r\n\r\n        documents[_hash] = Document({\r\n            owner: msg.sender,\r\n            signature: _signature,\r\n            publicKey: _publicKey,\r\n            hash: _hash\r\n        });\r\n\r\n        emit DocumentAdded(msg.sender, _hash);\r\n        documentCount++;\r\n    }\r\n}",
  "sourcePath": "C:\\Users\\kaush\\OneDrive\\Documents\\USYD\\2023\\Semester 2\\Thesis B\\SwyftDoc\\Truffle\\contracts\\Certify.sol",
  "compiler": {
    "name": "solc",
    "version": "0.8.0+commit.c7dfd78e.Emscripten.clang"
  },
  "schemaVersion": "3.4.15",
  "updatedAt": "2023-10-07T17:24:33.368Z",
  "networkType": "ethereum",
  "devdoc": {
    "kind": "dev",
    "methods": {},
    "version": 1
  },
  "userdoc": {
    "kind": "user",
    "methods": {},
    "version": 1
  }
}