{
  "contractName": "Verify",
  "abi": [
    {
      "inputs": [
        {
          "internalType": "address",
          "name": "_certifyContractAddress",
          "type": "address"
        }
      ],
      "stateMutability": "nonpayable",
      "type": "constructor"
    },
    {
      "inputs": [],
      "name": "certifyContract",
      "outputs": [
        {
          "internalType": "contract Certify",
          "name": "",
          "type": "address"
        }
      ],
      "stateMutability": "view",
      "type": "function",
      "constant": true
    },
    {
      "inputs": [
        {
          "internalType": "bytes32",
          "name": "_hash",
          "type": "bytes32"
        }
      ],
      "name": "verifyDocument",
      "outputs": [
        {
          "internalType": "address",
          "name": "",
          "type": "address"
        },
        {
          "internalType": "bytes",
          "name": "",
          "type": "bytes"
        },
        {
          "internalType": "bytes",
          "name": "",
          "type": "bytes"
        }
      ],
      "stateMutability": "view",
      "type": "function",
      "constant": true
    }
  ],
  "bytecode": "0x608060405234801561001057600080fd5b506040516107913803806107918339818101604052810190610032919061008d565b806000806101000a81548173ffffffffffffffffffffffffffffffffffffffff021916908373ffffffffffffffffffffffffffffffffffffffff160217905550506100ff565b600081519050610087816100e8565b92915050565b60006020828403121561009f57600080fd5b60006100ad84828501610078565b91505092915050565b60006100c1826100c8565b9050919050565b600073ffffffffffffffffffffffffffffffffffffffff82169050919050565b6100f1816100b6565b81146100fc57600080fd5b50565b6106838061010e6000396000f3fe608060405234801561001057600080fd5b50600436106100365760003560e01c806360bf04dd1461003b578063fe35089f14610059575b600080fd5b61004361008b565b6040516100509190610483565b60405180910390f35b610073600480360381019061006e919061032e565b6100af565b60405161008293929190610423565b60405180910390f35b60008054906101000a900473ffffffffffffffffffffffffffffffffffffffff1681565b600060608060008060008060008054906101000a900473ffffffffffffffffffffffffffffffffffffffff1673ffffffffffffffffffffffffffffffffffffffff16632b2805db896040518263ffffffff1660e01b81526004016101139190610468565b60006040518083038186803b15801561012b57600080fd5b505afa15801561013f573d6000803e3d6000fd5b505050506040513d6000823e3d601f19601f82011682018060405250810190610168919061029b565b9350935093509350600073ffffffffffffffffffffffffffffffffffffffff168473ffffffffffffffffffffffffffffffffffffffff1614156101e0576040517f08c379a00000000000000000000000000000000000000000000000000000000081526004016101d79061049e565b60405180910390fd5b838383965096509650505050509193909250565b6000610207610202846104ef565b6104be565b90508281526020810184848401111561021f57600080fd5b61022a8482856105ac565b509392505050565b6000815190506102418161061f565b92915050565b60008135905061025681610636565b92915050565b60008151905061026b81610636565b92915050565b600082601f83011261028257600080fd5b81516102928482602086016101f4565b91505092915050565b600080600080608085870312156102b157600080fd5b60006102bf87828801610232565b945050602085015167ffffffffffffffff8111156102dc57600080fd5b6102e887828801610271565b935050604085015167ffffffffffffffff81111561030557600080fd5b61031187828801610271565b92505060606103228782880161025c565b91505092959194509250565b60006020828403121561034057600080fd5b600061034e84828501610247565b91505092915050565b6103608161054c565b82525050565b61036f8161055e565b82525050565b60006103808261051f565b61038a818561052a565b935061039a8185602086016105ac565b6103a38161060e565b840191505092915050565b6103b781610588565b82525050565b60006103ca60268361053b565b91507f446f63756d656e7420776974682074686973206861736820646f6573206e6f7460008301527f20657869737400000000000000000000000000000000000000000000000000006020830152604082019050919050565b60006060820190506104386000830186610357565b818103602083015261044a8185610375565b9050818103604083015261045e8184610375565b9050949350505050565b600060208201905061047d6000830184610366565b92915050565b600060208201905061049860008301846103ae565b92915050565b600060208201905081810360008301526104b7816103bd565b9050919050565b6000604051905081810181811067ffffffffffffffff821117156104e5576104e46105df565b5b8060405250919050565b600067ffffffffffffffff82111561050a576105096105df565b5b601f19601f8301169050602081019050919050565b600081519050919050565b600082825260208201905092915050565b600082825260208201905092915050565b600061055782610568565b9050919050565b6000819050919050565b600073ffffffffffffffffffffffffffffffffffffffff82169050919050565b60006105938261059a565b9050919050565b60006105a582610568565b9050919050565b60005b838110156105ca5780820151818401526020810190506105af565b838111156105d9576000848401525b50505050565b7f4e487b7100000000000000000000000000000000000000000000000000000000600052604160045260246000fd5b6000601f19601f8301169050919050565b6106288161054c565b811461063357600080fd5b50565b61063f8161055e565b811461064a57600080fd5b5056fea26469706673582212205a14f0ee5a1c91f8f03b5a72fd5cdf8f3d7a5d875d9e4f7a77e2ca6727eb7ade64736f6c63430008000033",
  "immutableReferences": {},
  "source": "pragma solidity 0.8.0;\r\n\r\nimport \"./Certify.sol\";\r\n\r\ncontract Verify {\r\n    Certify public certifyContract;\r\n\r\n    constructor(address _certifyContractAddress) {\r\n        certifyContract = Certify(_certifyContractAddress);\r\n    }\r\n\r\n    // Function to verify a document given its hash\r\n    function verifyDocument(bytes32 _hash) public view returns (address, bytes memory, bytes memory) {\r\n        (address owner, bytes memory signature, bytes memory publicKey, bytes32 hash) = certifyContract.documents(_hash);\r\n\r\n        require(owner != address(0), \"Document with this hash does not exist\");\r\n\r\n        return (owner, signature, publicKey);\r\n    }\r\n}",
  "sourcePath": "C:\\Users\\kaush\\OneDrive\\Documents\\USYD\\2023\\Semester 2\\Thesis B\\SwyftDoc\\Truffle\\contracts\\Verify.sol",
  "compiler": {
    "name": "solc",
    "version": "0.8.0+commit.c7dfd78e.Emscripten.clang"
  },
  "schemaVersion": "3.4.15",
  "updatedAt": "2023-10-07T17:24:33.365Z",
  "networkType": "ethereum",
  "devdoc": {
    "kind": "dev",
    "methods": {},
    "version": 1
  },
  "userdoc": {
    "kind": "user",
    "methods": {},
    "version": 1
  }
}